{
  "address": "0x7B76D0B5cBD05E771ef9A1d5842D5778AFeF349d",
  "abi": [
    {
      "inputs": [
        {
          "internalType": "address",
          "name": "_beacon",
          "type": "address"
        }
      ],
      "stateMutability": "nonpayable",
      "type": "constructor"
    },
    {
      "anonymous": false,
      "inputs": [
        {
          "indexed": false,
          "internalType": "address",
          "name": "collection",
          "type": "address"
        },
        {
          "indexed": false,
          "internalType": "string",
          "name": "name",
          "type": "string"
        },
        {
          "indexed": false,
          "internalType": "string",
          "name": "symbol",
          "type": "string"
        }
      ],
      "name": "CollectionCreated",
      "type": "event"
    },
    {
      "anonymous": false,
      "inputs": [
        {
          "indexed": false,
          "internalType": "address",
          "name": "collection",
          "type": "address"
        },
        {
          "indexed": false,
          "internalType": "address",
          "name": "recipient",
          "type": "address"
        },
        {
          "indexed": false,
          "internalType": "uint256",
          "name": "tokenId",
          "type": "uint256"
        },
        {
          "indexed": false,
          "internalType": "string",
          "name": "tokenUri",
          "type": "string"
        }
      ],
      "name": "TokenMinted",
      "type": "event"
    },
    {
      "inputs": [],
      "name": "beacon",
      "outputs": [
        {
          "internalType": "contract IBeacon",
          "name": "",
          "type": "address"
        }
      ],
      "stateMutability": "view",
      "type": "function"
    },
    {
      "inputs": [
        {
          "internalType": "string",
          "name": "name",
          "type": "string"
        },
        {
          "internalType": "string",
          "name": "symbol",
          "type": "string"
        }
      ],
      "name": "createCollection",
      "outputs": [
        {
          "internalType": "address",
          "name": "collection",
          "type": "address"
        }
      ],
      "stateMutability": "nonpayable",
      "type": "function"
    },
    {
      "inputs": [
        {
          "internalType": "address",
          "name": "collection",
          "type": "address"
        },
        {
          "internalType": "address",
          "name": "recipient",
          "type": "address"
        },
        {
          "internalType": "string",
          "name": "tokenUri",
          "type": "string"
        }
      ],
      "name": "mintToken",
      "outputs": [
        {
          "internalType": "uint256",
          "name": "tokenId",
          "type": "uint256"
        }
      ],
      "stateMutability": "nonpayable",
      "type": "function"
    },
    {
      "inputs": [
        {
          "internalType": "address",
          "name": "",
          "type": "address"
        }
      ],
      "name": "wasCreated",
      "outputs": [
        {
          "internalType": "bool",
          "name": "",
          "type": "bool"
        }
      ],
      "stateMutability": "view",
      "type": "function"
    }
  ],
  "transactionHash": "0x97fd47841d1e62b51bb0aa61ebb3ede6b123b36eb322031fe830058735b579d9",
  "args": [
    "0x2A03fFB6C92230497A409496d17998038FB334d2"
  ],
  "numDeployments": 1,
  "solcInputHash": "46ee89563045f6155a1853fef27b6996",
  "bytecode": "0x608060405234801561001057600080fd5b5060405161121f38038061121f83398101604081905261002f91610054565b600080546001600160a01b0319166001600160a01b0392909216919091179055610084565b60006020828403121561006657600080fd5b81516001600160a01b038116811461007d57600080fd5b9392505050565b61118c806100936000396000f3fe60806040523480156200001157600080fd5b5060043610620000525760003560e01c806317205b341462000057578063176b9b7514620000925780633595bee314620000c257806359659e9014620000e8575b600080fd5b6200007d6200006836600462000424565b60016020526000908152604090205460ff1681565b60405190151581526020015b60405180910390f35b620000a9620000a336600462000495565b620000fc565b6040516001600160a01b03909116815260200162000089565b620000d9620000d336600462000508565b62000296565b60405190815260200162000089565b600054620000a9906001600160a01b031681565b600080634cd88b7660e01b8686868660405160240162000120949392919062000590565b60408051601f19818403018152918152602080830180517bffffffffffffffffffffffffffffffffffffffffffffffffffffffff167fffffffff000000000000000000000000000000000000000000000000000000009095169490941790935251909250600091620001999132914391869101620005f9565b6040516020818303038152906040528051906020012090508060008054906101000a90046001600160a01b031683604051620001d590620003f9565b620001e29291906200064d565b8190604051809103906000f590508015801562000203573d6000803e3d6000fd5b506001600160a01b03811660009081526001602081905260409182902080547fffffffffffffffffffffffffffffffffffffffffffffffffffffffffffffff00169091179055519093507f3454b57f2dca4f5a54e8358d096ac9d1a0d2dab98991ddb89ff9ea174626061790620002849085908a908a908a908a9062000692565b60405180910390a15050949350505050565b6001600160a01b03841660009081526001602052604081205460ff166200031d576040517f08c379a000000000000000000000000000000000000000000000000000000000815260206004820152600f60248201527f2162616420636f6c6c656374696f6e0000000000000000000000000000000000604482015260640160405180910390fd5b6040517fd0def5210000000000000000000000000000000000000000000000000000000081526001600160a01b0386169063d0def521906200036890879087908790600401620006d8565b6020604051808303816000875af115801562000388573d6000803e3d6000fd5b505050506040513d601f19601f82011682018060405250810190620003ae919062000706565b90507fc9fee7cd4889f66f10ff8117316524260a5242e88e25e0656dfb3f4196a219178585838686604051620003e995949392919062000720565b60405180910390a1949350505050565b610a01806200075683390190565b80356001600160a01b03811681146200041f57600080fd5b919050565b6000602082840312156200043757600080fd5b620004428262000407565b9392505050565b60008083601f8401126200045c57600080fd5b50813567ffffffffffffffff8111156200047557600080fd5b6020830191508360208285010111156200048e57600080fd5b9250929050565b60008060008060408587031215620004ac57600080fd5b843567ffffffffffffffff80821115620004c557600080fd5b620004d38883890162000449565b90965094506020870135915080821115620004ed57600080fd5b50620004fc8782880162000449565b95989497509550505050565b600080600080606085870312156200051f57600080fd5b6200052a8562000407565b93506200053a6020860162000407565b9250604085013567ffffffffffffffff8111156200055757600080fd5b620004fc8782880162000449565b818352818160208501375060006020828401015260006020601f19601f840116840101905092915050565b604081526000620005a660408301868862000565565b8281036020840152620005bb81858762000565565b979650505050505050565b60005b83811015620005e3578181015183820152602001620005c9565b83811115620005f3576000848401525b50505050565b7fffffffffffffffffffffffffffffffffffffffff0000000000000000000000008460601b168152826014820152600082516200063e816034850160208701620005c6565b91909101603401949350505050565b6001600160a01b038316815260406020820152600082518060408401526200067d816060850160208701620005c6565b601f01601f1916919091016060019392505050565b6001600160a01b0386168152606060208201526000620006b760608301868862000565565b8281036040840152620006cc81858762000565565b98975050505050505050565b6001600160a01b0384168152604060208201526000620006fd60408301848662000565565b95945050505050565b6000602082840312156200071957600080fd5b5051919050565b60006001600160a01b03808816835280871660208401525084604083015260806060830152620005bb6080830184866200056556fe608060405260405162000a0138038062000a0183398101604081905262000026916200049a565b62000034828260006200003c565b5050620005d9565b620000478362000111565b6040516001600160a01b038416907f1cf3b03a6cf19fa2baba4df148e9dcabedea7f8a5c07840e207e5c089be95d3e90600090a2600082511180620000895750805b156200010c576200010a836001600160a01b0316635c60da1b6040518163ffffffff1660e01b8152600401602060405180830381865afa158015620000d2573d6000803e3d6000fd5b505050506040513d601f19601f82011682018060405250810190620000f8919062000568565b83620002c360201b620000291760201c565b505b505050565b6200012781620002f260201b620000551760201c565b620001875760405162461bcd60e51b815260206004820152602560248201527f455243313936373a206e657720626561636f6e206973206e6f74206120636f6e6044820152641d1c9858dd60da1b60648201526084015b60405180910390fd5b62000201816001600160a01b0316635c60da1b6040518163ffffffff1660e01b8152600401602060405180830381865afa158015620001ca573d6000803e3d6000fd5b505050506040513d601f19601f82011682018060405250810190620001f0919062000568565b620002f260201b620000551760201c565b620002685760405162461bcd60e51b815260206004820152603060248201527f455243313936373a20626561636f6e20696d706c656d656e746174696f6e206960448201526f1cc81b9bdd08184818dbdb9d1c9858dd60821b60648201526084016200017e565b80620002a27fa3f0ad74e5423aebfd80d3ef4346578335a9a72aeaee59ff6cb3582b35133d5060001b6200030160201b620000711760201c565b80546001600160a01b0319166001600160a01b039290921691909117905550565b6060620002eb8383604051806060016040528060278152602001620009da6027913962000304565b9392505050565b6001600160a01b03163b151590565b90565b6060600080856001600160a01b03168560405162000323919062000586565b600060405180830381855af49150503d806000811462000360576040519150601f19603f3d011682016040523d82523d6000602084013e62000365565b606091505b509092509050620003798683838762000383565b9695505050505050565b60608315620003f7578251600003620003ef576001600160a01b0385163b620003ef5760405162461bcd60e51b815260206004820152601d60248201527f416464726573733a2063616c6c20746f206e6f6e2d636f6e747261637400000060448201526064016200017e565b508162000403565b6200040383836200040b565b949350505050565b8151156200041c5781518083602001fd5b8060405162461bcd60e51b81526004016200017e9190620005a4565b80516001600160a01b03811681146200045057600080fd5b919050565b634e487b7160e01b600052604160045260246000fd5b60005b83811015620004885781810151838201526020016200046e565b838111156200010a5750506000910152565b60008060408385031215620004ae57600080fd5b620004b98362000438565b60208401519092506001600160401b0380821115620004d757600080fd5b818501915085601f830112620004ec57600080fd5b81518181111562000501576200050162000455565b604051601f8201601f19908116603f011681019083821181831017156200052c576200052c62000455565b816040528281528860208487010111156200054657600080fd5b620005598360208301602088016200046b565b80955050505050509250929050565b6000602082840312156200057b57600080fd5b620002eb8262000438565b600082516200059a8184602087016200046b565b9190910192915050565b6020815260008251806020840152620005c58160408501602087016200046b565b601f01601f19169190910160400192915050565b6103f180620005e96000396000f3fe60806040523661001357610011610017565b005b6100115b610027610022610074565b610127565b565b606061004e83836040518060600160405280602781526020016103956027913961014b565b9392505050565b73ffffffffffffffffffffffffffffffffffffffff163b151590565b90565b60006100b47fa3f0ad74e5423aebfd80d3ef4346578335a9a72aeaee59ff6cb3582b35133d505473ffffffffffffffffffffffffffffffffffffffff1690565b73ffffffffffffffffffffffffffffffffffffffff16635c60da1b6040518163ffffffff1660e01b8152600401602060405180830381865afa1580156100fe573d6000803e3d6000fd5b505050506040513d601f19601f8201168201806040525081019061012291906102c1565b905090565b3660008037600080366000845af43d6000803e808015610146573d6000f35b3d6000fd5b60606000808573ffffffffffffffffffffffffffffffffffffffff16856040516101759190610327565b600060405180830381855af49150503d80600081146101b0576040519150601f19603f3d011682016040523d82523d6000602084013e6101b5565b606091505b50915091506101c6868383876101d0565b9695505050505050565b6060831561026b5782516000036102645773ffffffffffffffffffffffffffffffffffffffff85163b610264576040517f08c379a000000000000000000000000000000000000000000000000000000000815260206004820152601d60248201527f416464726573733a2063616c6c20746f206e6f6e2d636f6e747261637400000060448201526064015b60405180910390fd5b5081610275565b610275838361027d565b949350505050565b81511561028d5781518083602001fd5b806040517f08c379a000000000000000000000000000000000000000000000000000000000815260040161025b9190610343565b6000602082840312156102d357600080fd5b815173ffffffffffffffffffffffffffffffffffffffff8116811461004e57600080fd5b60005b838110156103125781810151838201526020016102fa565b83811115610321576000848401525b50505050565b600082516103398184602087016102f7565b9190910192915050565b60208152600082518060208401526103628160408501602087016102f7565b601f017fffffffffffffffffffffffffffffffffffffffffffffffffffffffffffffffe016919091016040019291505056fe416464726573733a206c6f772d6c6576656c2064656c65676174652063616c6c206661696c6564a26469706673582212202342fff6dd11637aeaa5ccd32b8821c89d5d04c07946215c3f46cc499f7fc9e964736f6c634300080d0033416464726573733a206c6f772d6c6576656c2064656c65676174652063616c6c206661696c6564a26469706673582212200c9e3f30225d68a44276a1953e5a4b16c9f2ff7bd25a391673fa6205c055af0e64736f6c634300080d0033",
  "devdoc": {
    "kind": "dev",
    "methods": {
      "createCollection(string,string)": {
        "details": "Creates a new collection as a proxy for beacon contract",
        "params": {
          "name": "Colelction name",
          "symbol": "Collection symbol"
        },
        "returns": {
          "collection": "address"
        }
      },
      "mintToken(address,address,string)": {
        "details": "Mints a new token id of the collection for uri specified",
        "params": {
          "collection": "The collection address created by this factory",
          "recipient": "The address mint to",
          "tokenUri": "Uri string for a new token"
        },
        "returns": {
          "tokenId": "of minted token"
        }
      }
    },
    "version": 1
  },
  "userdoc": {
    "kind": "user",
    "methods": {},
    "version": 1
  },
  "storageLayout": {
    "storage": [
      {
        "astId": 4001,
        "contract": "contracts/NftCollectionFactory.sol:NftCollectionFactory",
        "label": "beacon",
        "offset": 0,
        "slot": "0",
        "type": "t_contract(IBeacon)3346"
      },
      {
        "astId": 4005,
        "contract": "contracts/NftCollectionFactory.sol:NftCollectionFactory",
        "label": "wasCreated",
        "offset": 0,
        "slot": "1",
        "type": "t_mapping(t_address,t_bool)"
      }
    ],
    "types": {
      "t_address": {
        "encoding": "inplace",
        "label": "address",
        "numberOfBytes": "20"
      },
      "t_bool": {
        "encoding": "inplace",
        "label": "bool",
        "numberOfBytes": "1"
      },
      "t_contract(IBeacon)3346": {
        "encoding": "inplace",
        "label": "contract IBeacon",
        "numberOfBytes": "20"
      },
      "t_mapping(t_address,t_bool)": {
        "encoding": "mapping",
        "key": "t_address",
        "label": "mapping(address => bool)",
        "numberOfBytes": "32",
        "value": "t_bool"
      }
    }
  }
}